:020000040800F2
:1000000000200020BD0E00083D0400083F04000849
:1000100000000000000000000000000000000000E0
:100020000000000000000000000000004104000883
:100030000000000000000000430400084504000820
:100040000D0F0008000000000D0F00080D0F000844
:100050000D0F00080D0F00080D0F00080D0F000810
:10006000000000000D0F00080D0F00080D0F000824
:100070000D0F00080D0F00080D0F00080000000014
:100080000D0F000800000000000000000D0F000828
:10009000000000000D0F00080D0F00080D0F0008F4
:1000A0000D0F00080D0F00080D0F00080D0F0008C0
:0800B0000D0F00080000000024
:1000B8000448054B10B5834203D0044B002B00D0F5
:1000C800984710BD0C0000200C0000200000000024
:1000D80006480749091A8B10C90FC91810B54910E5
:1000E80003D0044B002B00D0984710BD0C00002013
:1000F8000C0000200000000010B5074C2378002BEE
:1001080009D1FFF7D5FF054B002B02D0044800E0CA
:1001180000BF0123237010BD0C0000200000000068
:10012800100F0008054B10B5002B03D004490548F3
:1001380000E000BFFFF7CCFF10BDC0460000000084
:1001480010000020100F000870B50D4B0D4D5E1B00
:10015800B610AB4205D0002408CD01349847A6421A
:10016800FAD800F0D1FE084B084D5E1BB610AB4222
:1001780005D0002408CD01349847A642FAD870BDAE
:10018800680F0008680F00086C0F0008680F000867
:10019800F0B50500830749D0541E002A45D0030056
:1001A8000326CAB202E00135013C3ED301332A706E
:1001B8003342F8D1032C30D9FF220A401502AD187A
:1001C8002A04AD180F2C34D92700103F3F093E01EF
:1001D800B4461E001A0010366644156055609560D6
:1001E800D56010329642F8D101373F01DB190F274D
:1001F8000C22274022403C00002A0ED03E1FB608A1
:10020800B400A4461A001C1D644420C2A242FCD1BA
:1002180003240136B6009B193C40002C05D0C9B216
:100228001C19197001339C42FBD1F0BD0300140066
:10023800C0E72700E2E7C046002243088B4274D398
:1002480003098B425FD3030A8B4244D3030B8B42CF
:1002580028D3030C8B420DD3FF22090212BA030CD8
:100268008B4202D31212090265D0030B8B4219D3B9
:1002780000E0090AC30B8B4201D3CB03C01A5241D9
:10028800830B8B4201D38B03C01A5241430B8B4221
:1002980001D34B03C01A5241030B8B4201D30B030A
:1002A800C01A5241C30A8B4201D3CB02C01A524131
:1002B800830A8B4201D38B02C01A5241430A8B42F4
:1002C80001D34B02C01A5241030A8B4201D30B02DD
:1002D800C01A5241CDD2C3098B4201D3CB01C01AF7
:1002E800524183098B4201D38B01C01A5241430901
:1002F8008B4201D34B01C01A524103098B4201D3EF
:100308000B01C01A5241C3088B4201D3CB00C01A5B
:10031800524183088B4201D38B00C01A52414308D3
:100328008B4201D34B00C01A5241411A00D20146F8
:10033800524110467047FFE701B5002000F006F86B
:1003480002BDC0460029F7D076E770477047C0461F
:1003580030B587B01422002101A8FFF719FF0E4B12
:100368005A6B012422435A635B6B23400093009B22
:10037800A025ED0500224021280000F0A9FC40231B
:100388000193029400230393049301A9280000F029
:10039800E5FB07B030BDC0460010024010B572B68C
:1003A800A0202021C00500F099FCFA20400000F0B0
:1003B8006DFDF5E700B593B03422002105A8FFF7DD
:1003C800E7FE1022002101A8FFF7E2FE802080004E
:1003D80000F08CFC02230593FE3308930023099355
:1003E80040220A920C9305A800F044F800280DD189
:1003F800072301930023029303930493002101A888
:1004080000F0E6FA002803D113B000BDFFF7C6FFDD
:10041800FFF7C4FF10B500F013FDFFF7CBFFFFF7A0
:1004280097FFA0204021C00500F058FCC82000F02C
:100438002DFDF6E7FEE7FEE77047704710B500F0C0
:1004480013FD10BD82B00A4B196C012211431964C7
:10045800196C0A400092009ADA6B802149050A4318
:10046800DA63DB6B0B400193019B02B07047C04617
:100478000010024070B582B0041E00D129E2036862
:10048800DB0739D5C14A916838230B40D16803226C
:100498000A40102B26D0082B26D0636880225202EF
:1004A80093427FD0A022D202934200D181E0B74B81
:1004B8001A68B7490A401A601A68B6490A401A60A9
:1004C8006368002B00D180E000F0DAFC0500AF4B38
:1004D8001B689B0310D400F0D3FC401B6428F6D99A
:1004E8000320F7E1032AD6D1A84B1B689B0303D549
:1004F8006368002B00D1EFE123689B0731D5A34A3D
:10050800916838230B40D16803220A40102B6AD027
:10051800002B6BD19D4A1268520503D5E268002A68
:1005280000D1DBE1994842689B490A4061690902A8
:100538000A434260002B0DD1036898490B4021699A
:100548000B4303600368DB0A07221A40944BD3402D
:10055800944A1360944B186800F046FC002800D0B9
:10056800BEE123681B0700D481E0884B9A683823D2
:100578001340182B73D0A369002B00D1B4E0834A31
:10058800136E01210B43136600F07AFC05007F4BC4
:100598001B6E9B076BD400F073FC401B0228F6D936
:1005A800032097E1794A116880235B020B431360AB
:1005B80086E7764B19688022D2020A431A601968C6
:1005C800802252020A431A607AE700F059FC0500BB
:1005D8006E4B1B689B038FD500F052FC401B6428B0
:1005E800F6D9032076E1022A92D193E7E368002B3B
:1005F80022D0664A136869490B4021690B4313608E
:10060800116880235B000B43136000F039FC050080
:100618005E4B1B685B0506D400F032FC401B0228C9
:10062800F6D9032056E159494B685B4A1340626981
:10063800120213434B6094E7544A13685B490B401A
:10064800136000F01DFC0500504B1B685B0588D546
:1006580000F016FC401B0228F6D903203AE14B4B68
:100668001B6E9B0703D5A369002B00D13AE12368D1
:100678005B0700D4A2E0454B9A6838231340202B2F
:1006880045D0424BDB6BDB004AD4404BDA6B802110
:1006980049050A43DA63DB6B0B400193019B012593
:1006A800434B1B68DB053DD5A368012B4ED0052BBA
:1006B80052D0364BDA6D01218A43DA65DA6D03319F
:1006C8008A43DA65A368002B50D000F0D9FB0600F6
:1006D8002E4BDB6D9B076FD400F0D2FB801B354B94
:1006E8009842F5D90320F5E0284A136E01218B437F
:1006F800136600F0C5FB0500244B1B6E9B07B6D59F
:1007080000F0BEFB401B0228F6D90320E2E01F4B95
:10071800DB6D9B0752D5A368002B4FD10120D9E090
:100728000025BDE7224A116880235B000B43136054
:1007380000F0A6FB06001E4B1B68DB05B4D400F0D6
:100748009FFB801B0228F6D90320C3E00F4AD36D14
:1007580001210B43D365B5E70C4BDA6D04210A433D
:10076800DA65DA6D03390A43DA65ABE700F088FB2E
:100778000600064BDB6D9B071ED500F081FB801B36
:100788000C4B9842F5D90320A4E0C0460010024063
:10079800FFFFFEFFFFFFFBFFFF80FFFFFFC7FFFF1D
:1007A8000024F4000800002004000020FFFEFFFFE2
:1007B8000070004088130000012D1ED0E369002B53
:1007C80000D191E04F4A916838220A40102A5ED041
:1007D800022B18D04B4A13684B490B40136000F0AA
:1007E8004FFB0400474B1B689B0149D500F048FBB1
:1007F800001B0228F6D903206CE0424AD36B434918
:100808000B40D363DAE73F4A13683F490B40136054
:1008180000F036FB05003B4B1B689B0106D500F03A
:100828002FFB401B0228F6D9032053E0354AD36832
:1008380037491940236A606A0343A06A00020343E8
:10084800E06A0343206B03430B43D36011688023A2
:100858005B040B431360D16880235B050B43D360B3
:1008680000F00EFB0400274B1B689B0106D400F028
:1008780007FB001B0228F6D903202BE0002029E003
:10088800204AD36823490B40D360002022E0012B83
:100898002CD01C4BDA6803231340216A8B4227D1E2
:1008A80070231340616A8B4224D1FE21C901114093
:1008B800A36A1B0299421FD1F8239B031340E16AE4
:1008C8008B421BD1520F5207236B9A4218D100203A
:1008D80000E0012002B070BD0120FBE70120F9E72C
:1008E8000120F7E70120F5E70020F3E70120F1E711
:1008F8000120EFE70120EDE70120EBE70120E9E720
:100908000120E7E700100240FFFFFFFEFFFFFFEFB7
:100918008C80C11FFCFFFEEF10B52A4B9B68382264
:100928001A4207D1274B1A68D20A072313402648D0
:10093800D84010BD234B9A6838231340082B3BD06E
:10094800204B9A6838231340102B0DD01D4B9A6802
:1009580038231340202B31D01A4B9A683823134080
:10096800182B26D00020E4E7164AD1680D3B0B402F
:10097800D2681209072111400131032B0FD0124808
:10098800FFF75AFC0F4BDA68120A7F2313405843CB
:100998000C4BD968490F0131FFF74EFCC9E70B48EA
:1009A800FFF74AFC074BDA68120A7F2313405843C3
:1009B800EEE7FA20C001BCE70448BAE7802000024D
:1009C800B7E7C046001002400024F40000127A0085
:1009D80070B504000D00002800D1AAE0574B1A6832
:1009E800072313408B4221D323689A070ED55B0750
:1009F80005D5534A9168E023DB010B439360504AC5
:100A0800936850490B40A1680B4393602368DB0748
:100A180054D56368012B20D0022B3BD0002B3FD14B
:100A2800474A126852051CD401206AE0434A1368F9
:100A380007218B432B43136000F022FA06003F4B3B
:100A48001A6807231340AB42CED000F019FA801B76
:100A58003D4A9042F3D9032053E0394A1268920381
:100A680069D537498A680720824313438B6000F0B1
:100A780007FA0600324B9B6838221A406368DB008D
:100A88009A421BD000F0FCF9801B2F4B9842F1D9F9
:100A9800032036E02A4A12689201E2D4012030E0AD
:100AA800032B05D0264AD26D9207DAD4012028E01C
:100AB800234A126E9207D4D4012022E01F4B1A68F1
:100AC80007231340AB421DD823685B0706D51C4A91
:100AD80093681E490B40E1680B439360FFF71CFFC6
:100AE800174B9A68120A0F231340194A9B009A5809
:100AF8001F231340D840174B1860174B186800F095
:100B080073F970BD0D4A136807218B432B4313609B
:100B180000F0B6F90600094B1A6807231340AB42E8
:100B2800D2D000F0ADF9801B074B9842F3D90320CF
:100B3800E7E70120E5E70120E3E7C046002002409F
:100B480000100240FFF0FFFF88130000FF8FFFFF37
:100B5800280F00080800002004000020F0B500233A
:100B680059E086685F000324BC40A643CC68BC40BB
:100B780034438460446894434E6836090122324005
:100B88009A402243426056E0DE080836B6003758DD
:100B980005321A4092000F249440A7430C699440F0
:100BA80022003A43325059E0032600E00026A640CE
:100BB80034003C43424E1832920094513768EA435D
:100BC8003E00AE434C68E40201D53E002E433C4C47
:100BD800266067683E0016404C68A40201D53E00B6
:100BE8002E43374C66608426A7593E0016404C6851
:100BF800A40301D53E002E43314C8427E6518026BC
:100C0800A65932404C68E40301D52A0032432C4DE2
:100C180080242A5101330C682200DA404ED0012288
:100C28009A40250015401442F4D04E6803243440FD
:100C3800013C012C95D94C6803222240032A08D094
:100C4800C4685E000322B24094438A68B2402243DB
:100C5800C2604C6803222240022A95D004685E00D4
:100C680003221700B740BC434F683A40B2402243C2
:100C780002604C68C02292021442CBD09A08140039
:100C88001834A4000E4EA75903241C40E4000F2674
:100C9800A640B743A026F605B04287D0094EB04219
:100CA80008D0094EB04207D0084EB04200D17BE7C9
:100CB80005267CE701267AE7022678E7F0BDC046DC
:100CC800001802400004005000080050000C0050BA
:100CD800002A01D0816170478162FCE742691300F4
:100CE8000B401B0491430B438361704710B5104AB6
:100CF800136810490B400343136080239B009842FC
:100D080001D0002010BD0C4B1B685800C0184000D3
:100D18000A49FFF791FA0130054B5B695B0503D57A
:100D2800002803D00138F7E70020EBE70320E9E7C4
:100D380000700040FFF9FFFF0800002040420F004C
:100D480070B5002811DB8308134DC0339B005C5934
:100D580003221040C000FC3216008640B4438901CB
:100D68000A40824022435A5170BD0F230340083B7A
:100D78009B0806339B00094A944663445C68032237
:100D88001040C000FC3215008540AC4389010A4080
:100D9800824022435A60E7E700E100E000ED00E00E
:100DA800013880235B0498420FD2094A50600948F1
:100DB800036A1B021B0AC02109060B4303620023B6
:100DC800936007331360002070470120FCE7C0469A
:100DD80010E000E000ED00E010B5FFF7B1FF10BD36
:100DE80010B5FFF7DDFF10BD10B50400114B1978E1
:100DF800002901D1012010BDFA208000FFF71CFA5C
:100E080001000D4B1868FFF717FAFFF7E9FF0028F4
:100E18000DD1032C01D90120EDE70130002221007A
:100E28004042FFF7D9FF054B1C600020E3E7012093
:100E3800E1E7C04600000020080000200400002070
:100E480010B5084A116880235B000B431360032028
:100E5800FFF7CAFF041E02D00124200010BDFFF7CF
:100E6800F1FAFAE700200240034B1B78034A1168A5
:100E78005B1813607047C04600000020280000205F
:100E8800014B18687047C0462800002070B5040060
:100E9800FFF7F6FF0500631C02D0044B1B78E4182B
:100EA800FFF7EEFF401BA042FAD370BD0000002000
:100EB800704700000D488546FFF7FAFF0C480D49BA
:100EC8000D4A002302E0D458C4500433C4188C429D
:100ED800F9D30A4A0A4C002301E013600432A24203
:100EE800FBD3FFF731F9FFF795FAFEE70020002062
:100EF800000000200C000020700F00080C000020EB
:100F08002C000020FEE70000F8B5C046F8BC08BC7D
:100F18009E467047F8B5C046F8BC08BC9E46704768
:100F280000000000000000000000000000000000B9
:100F380000000000000000000000000000000000A9
:100F4800010000000200000003000000040000008F
:100F5800060000000700000008000000090000006B
:040F68002D0100084F
:040F6C000101000877
:0C0F700001000000040000000024F40058
:0400000508000EBD24
:00000001FF
